:100000000C9441000C9469000C9469000C946900F4
:100010000C9469000C9469000C9469000C946900BC
:100020000C9469000C9452050C947B050C94A40567
:100030000C9448060C94CD050C94F6050C941F0600
:100040000C94D7040C9400050C9429050C946900B9
:100050000C941D040C94D0010C9469000C9469005C
:100060000C9469000C9469000C9469000C9469006C
:100070000C94F2030C941E020C9469009400480442
:10008000840711241FBECFEFD0E1DEBFCDBF11E04A
:10009000A0E0B1E0E0E1F0E102C005900D92A434EF
:1000A000B107D9F712E0A4E4B1E001C01D92A63F68
:1000B000B107E1F710E0C2E8D0E004C02297FE01EA
:1000C0000E94D307CC37D107C9F70E9417010C94BF
:1000D00006080C94000066E071E084E491E00E9460
:1000E000AA00882359F084E491E00E94B7000097A9
:1000F00011F447980895019709F4479A0895EF92EB
:100100000F93E12C01E028E040E051EE60E070E068
:100110008BE292E00E94F0023F9A0F91EF900895D7
:1001200084E491E00C94F8004BE650E06BE272E05E
:1001300084E491E00C949C00FC01778366835183F6
:100140004083DC01A657BF4F1C9212860B96938307
:10015000828308959B01BC01655F7F4FC9010E94A6
:10016000F5079C0181E0232B09F080E00895FC0154
:10017000828193810C94D707CF93DF93EC011616FD
:1001800017069CF56D30710539F06032710569F024
:100190006A307105E1F429C08A85FE01E80FF11D7E
:1001A0001386E881F98109951BC08A85FE01E80F55
:1001B000F11D13868F5F8E3710F48A8701C01A866F
:1001C0008A8590E00B968C0F9D1F9B838A838A857E
:1001D000FE01E80FF11D63878F5F8A878E3728F055
:1001E0001A86CE010B969B838A83DF91CF91089567
:1001F000CF93DF93EC010DC08E819F81DC01ED91E7
:10020000FC910084F185E02D0995BC01CE010E948E
:10021000BC008E819F81DC01ED91FC910480F58111
:10022000E02D0995892B41F7DF91CF9108950E9428
:100230007A040E947F000E949000FDCFFC0120897B
:100240003189C9010895DC0150962D913C91519757
:10025000232B49F05496ED91FC915597E80FF91F27
:10026000268930E002C02FEF3FEFC9010895FC015D
:10027000118A108A158A148A138A128A0895FC0139
:1002800024813581C9010895FC0124813581C9018A
:100290000895FC0180899189892BD1F03FB7F894AA
:1002A000808991890197918B808B84899589DF0161
:1002B000A80FB91F56962C910196803291051CF417
:1002C000958B848B02C0158A148A3FBF30E002C030
:1002D0002FEF3FEFC9010895EF92FF921F93CF9345
:1002E000DF931F92CDB7DEB77C01D701DA968D91EF
:1002F0009C91DB974097C8F71FB7F894D696ED917D
:10030000FC91D7970190F081E02DC701C6966983D3
:10031000099569814097C8F4F70182AD93AD0196C4
:1003200093AF82AF84AD95ADE80FF91FE05CFF4F4E
:1003300060830196D701DD969C938E93DC9740975E
:1003400024F0DD961C921E92DC97F701EA5AFF4FCB
:100350000190F081E02D8081806280831FBF81E069
:1003600090E00F90DF91CF911F91FF90EF90089553
:10037000665F7F4F680F791FCB010895665F7F4FDF
:10038000680F791FCB010895665F7F4F680F791F53
:10039000CB010895665F7F4F680F791FCB010895E9
:1003A0001F920F920FB60F9211242F938F939F934A
:1003B000AF93BF93EF93FF93809165029091660294
:1003C000892B21F1E0918502F091860280916502EE
:1003D00090916602019790936602809365028091E6
:1003E000690290916A02DC01AF59BD4F1A962C91B7
:1003F0000196803191052CF490936A0280936902F2
:1004000004C010926A0210926902208380916502F2
:1004100090916602892B31F4E0918102F091820281
:1004200088E98083FF91EF91BF91AF919F918F9168
:100430002F910F900FBE0F901F9018951F920F9243
:100440000FB60F9211242F938F939F93AF93BF9367
:10045000EF93FF938091090290910A02892B21F179
:10046000E0912902F0912A028091090290910A02FA
:10047000019790930A028093090280910D02909156
:100480000E02DC01AB5FBD4F1A962C9101968031B4
:1004900091052CF490930E0280930D0204C01092EB
:1004A0000E0210920D0220838091090290910A029F
:1004B000892B31F4E0912502F091260288E98083AE
:1004C000FF91EF91BF91AF919F918F912F910F90DD
:1004D0000FBE0F901F901895FC01262F13821282D9
:1004E00048EE53E060E070E0448355836683778391
:1004F0008EE091E0918380838EE191E095878487FF
:1005000080E290E097878687118A108A158A148A7C
:10051000138A128A88E291E097AB86AB80E190E083
:1005200091AF80AF13AE12AE17AE16AE15AE14AECD
:10053000222321F0213009F052C028C0DF01A05B46
:10054000BF4F85EC90E08D939C93DF01AE5ABF4F77
:1005500084EC90E08D939C93DF01AC5ABF4F80EC0C
:1005600090E08D939C93DF01AA5ABF4F81EC90E0FD
:100570008D939C93DF01A85ABF4F82EC90E08D933E
:100580009C93E65AFF4F86EC90E027C0DF01A05B0A
:10059000BF4F8DEC90E08D939C93DF01AE5ABF4F1F
:1005A0008CEC90E08D939C93DF01AC5ABF4F88ECAC
:1005B00090E08D939C93DF01AA5ABF4F89EC90E0A5
:1005C0008D939C93DF01A85ABF4F8AEC90E08D93E6
:1005D0009C93E65AFF4F8EEC90E0918380830895C0
:1005E0003F924F925F926F927F928F929F92AF92C3
:1005F000BF92CF92DF92EF92FF920F931F93CF9310
:10060000DF93EC014A015B01122F3E2C60E072E1A6
:100610008AE790E0A50194010E94930769017A019D
:1006200084E0C80ED11CE11CF11C83E0F694E79431
:10063000D794C7948A95D1F760E074E284EF90E094
:10064000A50194010E94930729013A0194E0490E03
:10065000511C611C711C93E07694679457944794E5
:100660009A95D1F7A30192014427552760E874E8D1
:100670008EE190E00E94B5075901A818B908B7FEAD
:1006800003C0B194A194B108A7019601442755274E
:1006900060E472E48FE090E00E94B5072819390900
:1006A00037FF03C0319521953109FE01EC5AFF4F08
:1006B0000190F081E02DA216B3063CF482E0808325
:1006C000620181E0C81AD10804C0108291E0C91A01
:1006D000D1081630C1F018F4153099F405C0173060
:1006E00029F0193071F404C080E00EC084E00CC021
:1006F000FE01EA5AFF4F0190F081E02D8081846075
:10070000808386E001C082E0023009F4886091E0D5
:10071000391621F092E0391204C002C0806301C092
:100720008062FE01E85AFF4F0190F081E02D808346
:10073000FE01E05BFF4F0190F081E02DD082FE01D1
:10074000EE5AFF4F0190F081E02DC082CA5ADF4F70
:10075000E881F98188E98083DF91CF911F910F9122
:10076000FF90EF90DF90CF90BF90AF909F908F90D1
:100770007F906F905F904F903F9008950F931F93DD
:10078000CF93DF931F92CDB7DEB78C01DC01ED91E3
:10079000FC910190F081E02D698309956981809732
:1007A000D0F4F801848195810196958384838681B4
:1007B0009781E80FF91F628701968032910534F422
:1007C000D80117969C938E93169703C0F801178251
:1007D000168281E001C080E00F90DF91CF911F91E0
:1007E0000F9108951F920F920FB60F9211242F931D
:1007F0003F934F935F936F937F938F939F93AF93A9
:10080000BF93EF93FF93E0912902F0912A02608158
:100810008BED91E00E94BE03FF91EF91BF91AF91EC
:100820009F918F917F916F915F914F913F912F9108
:100830000F900FBE0F901F9018951F920F920FB63A
:100840000F9211242F933F934F935F936F937F9356
:100850008F939F93AF93BF93EF93FF93E0918502A4
:10086000F0918602608187E392E00E94BE03FF91CF
:10087000EF91BF91AF919F918F917F916F915F9118
:100880004F913F912F910F900FBE0F901F90189591
:1008900060E08BE292E00E946C0261E08FEC91E0FC
:1008A0000C946C02CF92DF92EF92FF920F931F9302
:1008B000CF93DF936C01EB017A01E60EF71E00E0A7
:1008C00010E00BC06991D601ED91FC910190F0818F
:1008D000E02DC6010995080F191FCE15DF0591F708
:1008E000C801DF91CF911F910F91FF90EF90DF90A2
:1008F000CF90089563E084ED92E00E946E0721E0BE
:1009000042EA54E060E084ED92E00E94440764E033
:1009100084ED92E00E94710661E082EB92E00E9419
:100920006E0764E082EB92E00E94710661E080E96C
:1009300092E00E946E0764E080E992E00E947106F6
:10094000789408958091880290918902A0918A02FA
:10095000B0918B0230918702232F2D5F2D3720F429
:100960000196A11DB11D05C0232F2A570296A11D76
:10097000B11D209387028093880290938902A093EF
:100980008A02B0938B0280918C0290918D02A0918B
:100990008E02B0918F020196A11DB11D80938C0231
:1009A00090938D02A0938E02B0938F0208951F92B0
:1009B0000F920FB60F9211242F933F934F935F9393
:1009C0006F937F938F939F93AF93BF93EF93FF9317
:1009D000E091EE02F091EF02309709F00995FF9156
:1009E000EF91BF91AF919F918F917F916F915F91A7
:1009F0004F913F912F910F900FBE0F901F90189520
:100A00001F920F920FB60F9211242F933F934F9383
:100A10005F936F937F938F939F93AF93BF93EF9366
:100A2000FF93E091F002F091F102309709F00995FF
:100A3000FF91EF91BF91AF919F918F917F916F91B6
:100A40005F914F913F912F910F900FBE0F901F908C
:100A500018951F920F920FB60F9211242F933F9368
:100A60004F935F936F937F938F939F93AF93BF93B6
:100A7000EF93FF93E091EC02F091ED02309709F0D3
:100A80000995FF91EF91BF91AF919F918F917F91C8
:100A90006F915F914F913F912F910F900FBE0F90EB
:100AA0001F9018951F920F920FB60F9211242F933B
:100AB0003F934F935F936F937F938F939F93AF93E6
:100AC000BF93EF93FF93E091AA02F091AB023097AE
:100AD00009F00995FF91EF91BF91AF919F918F918F
:100AE0007F916F915F914F913F912F910F900FBE2A
:100AF0000F901F9018951F920F920FB60F9211240E
:100B00002F933F934F935F936F937F938F939F9315
:100B1000AF93BF93EF93FF93E091AC02F091AD02DE
:100B2000309709F00995FF91EF91BF91AF919F9197
:100B30008F917F916F915F914F913F912F910F9086
:100B40000FBE0F901F9018951F920F920FB60F9225
:100B500011242F933F934F935F936F937F938F93C2
:100B60009F93AF93BF93EF93FF93E091A802F0910F
:100B7000A902309709F00995FF91EF91BF91AF91CC
:100B80009F918F917F916F915F914F913F912F91A5
:100B90000F900FBE0F901F9018951F920F920FB6D7
:100BA0000F9211242F933F934F935F936F937F93F3
:100BB0008F939F93AF93BF93EF93FF93E091CC02FA
:100BC000F091CD02309709F00995FF91EF91BF9117
:100BD000AF919F918F917F916F915F914F913F91D5
:100BE0002F910F900FBE0F901F9018951F920F928C
:100BF0000FB60F9211242F933F934F935F936F93F0
:100C00007F938F939F93AF93BF93EF93FF93E09165
:100C1000CE02F091CF02309709F00995FF91EF9144
:100C2000BF91AF919F918F917F916F915F914F9104
:100C30003F912F910F900FBE0F901F9018951F920C
:100C40000F920FB60F9211242F933F934F935F9300
:100C50006F937F938F939F93AF93BF93EF93FF9384
:100C6000E091CA02F091CB02309709F00995FF910B
:100C7000EF91BF91AF919F918F917F916F915F9114
:100C80004F913F912F910F900FBE0F901F9018958D
:100C90001F920F920FB60F9211242F933F934F93F1
:100CA0005F936F937F938F939F93AF93BF93EF93D4
:100CB000FF93E091D202F091D302309709F00995A9
:100CC000FF91EF91BF91AF919F918F917F916F9124
:100CD0005F914F913F912F910F900FBE0F901F90FA
:100CE0001895DC012C916150223039F4673068F49A
:100CF000E62FF0E0E25DFE4F06C0693030F4E62FEB
:100D0000F0E0EB5CFE4F208101C020E0DC011A9690
:100D1000ED91FC911B978081887F822B80830895C1
:100D2000CF93DF93EC016883613011F120F06230E2
:100D300009F06CC048C01B821A8286E490E09D8353
:100D40008C838EE690E09F838E8384E490E0998785
:100D5000888785E490E09B878A871D861C8687E4C8
:100D600090E09F878E87198A188A88E490E022C0D5
:100D70008FE690E09F838E8385E890E09B838A8353
:100D800084E890E09D838C8380E890E09987888751
:100D900081E890E09B878A8789E890E09D878C872F
:100DA00088E890E09F878E878BE890E0998B888B0E
:100DB0008AE890E09B8B8A8B1D8A1C8A1F8A1E8A78
:100DC00082E0898323C01B821A8282EB90E09D839C
:100DD0008C8380E790E09F838E8380EB90E09987FF
:100DE000888781EB90E09B878A871D861C8683EB32
:100DF00090E09F878E87198A188A84EB90E09B8BFE
:100E00008A8B1D8A1C8A1F8A1E8A698360E0CE0134
:100E10000E947106EA81FB81309709F01082EC8113
:100E2000FD811082198E188E1B8E1A8E1D8E1C8EBF
:100E30001F8E1E8E19A218A2DF91CF91089551E046
:100E4000411101C050E06530F0F4E62FF0E0E25CC3
:100E5000FE4F408147FD17C0DC011696ED91FC91D5
:100E60001797808121E030E0042E01C0220F0A9400
:100E7000EAF720952823852F042E01C0880F0A94B5
:100E8000EAF7282B20830895623099F028F466232E
:100E900041F06130C9F409C0633079F06430A1F4E5
:100EA00010C0FC01518F408F0FC0FC01538F428F47
:100EB0000BC0FC01558F448F07C0FC01578F468F34
:100EC00003C0FC0151A340A3452B11F440E003C033
:100ED000222319F041E00C941F070895DC011896B5
:100EE000ED91FC9119973081262F23703C7F232BA5
:100EF00020831A96ED91FC911B9780816C70660F90
:100F0000877E682B6083089560E084ED92E00E9404
:100F1000900661E082EB92E00E94900662E080E938
:100F200092E00C949006A1E21A2EAA1BBB1BFD01B5
:100F30000DC0AA1FBB1FEE1FFF1FA217B307E407B8
:100F4000F50720F0A21BB30BE40BF50B661F771F10
:100F5000881F991F1A9469F76095709580959095F0
:100F60009B01AC01BD01CF010895052E97FB16F43E
:100F7000009407D057FD0DD00E94930707FC09D0BD
:100F80007EF490958095709561957F4F8F4F9F4F20
:100F9000089550954095309521953F4F4F4F5F4FA5
:100FA0000895EE0FFF1F0590F491E02D0994FC01C8
:100FB00088279927E89421912032E9F3293010F00D
:100FC0002E30C8F32B3241F02D3239F4689404C02E
:100FD0000E94FE07820F911D219120532A30C0F3F9
:100FE0001EF4909581959F4F0895FB01DC018D9132
:100FF000019080190110D9F3990B08957AE0979F19
:10100000902D879F802D910D11240895F894FFCF86
:101010000000F60220006C656400000000006C0116
:1010200052041E0123014901370100000000440160
:10103000C401CA01000000003F01B801BE01010265
:10104000030405060701020003000405060700016A
:041050000203050092
:00000001FF
