:100000000C9441000C9469000C9469000C946900F4
:100010000C9469000C9469000C9469000C946900BC
:100020000C9469000C94AF050C94D8050C9401064F
:100030000C94A5060C942A060C9453060C947C068A
:100040000C9434050C945D050C9486050C946900A1
:100050000C947A040C942D020C9469000C946900A1
:100060000C9469000C9469000C9469000C9469006C
:100070000C944F040C947B020C9469009500A50429
:10008000E10711241FBECFEFD0E1DEBFCDBF11E0ED
:10009000A0E0B1E0EAECF0E102C005900D92A634D8
:1000A000B107D9F712E0A6E4B1E001C01D92A83F64
:1000B000B107E1F710E0C2E8D0E004C02297FE01EA
:1000C0000E943008CC37D107C9F70E9474010C9404
:1000D00063080C94000068E071E086E491E00E94FF
:1000E000AB00882349F086E491E00E94B800682FB5
:1000F000809106010C9446010895EF920F93E12C34
:1001000001E028E040E051EE60E070E08DE292E036
:100110000E944D0361E0809106010F91EF900C94D5
:10012000180186E491E00C94F9004BE650E06DE292
:1001300072E086E491E00C949D00FC017783668375
:1001400051834083DC01A657BF4F1C9212860B9649
:100150009383828308959B01BC01655F7F4FC90132
:100160000E9452089C0181E0232B09F080E0089551
:10017000FC01828193810C943408CF93DF93EC01CE
:10018000161617069CF56D30710539F06032710551
:1001900069F06A307105E1F429C08A85FE01E80F33
:1001A000F11D1386E881F98109951BC08A85FE013E
:1001B000E80FF11D13868F5F8E3710F48A8701C018
:1001C0001A868A8590E00B968C0F9D1F9B838A83ED
:1001D0008A85FE01E80FF11D63878F5F8A878E375E
:1001E00028F01A86CE010B969B838A83DF91CF91EC
:1001F0000895CF93DF93EC010DC08E819F81DC01C8
:10020000ED91FC910084F185E02D0995BC01CE01B2
:100210000E94BD008E819F81DC01ED91FC910480E4
:10022000F581E02D0995892B41F7DF91CF91089554
:10023000982F977021E030E0092E01C0220F0A9418
:10024000EAF786958695869581F0813089F082302F
:1002500091F08330D1F412C080812095822302C0B6
:100260008081822B80839FBF0895EAE2F0E008C07E
:10027000E7E2F0E005C0E4E2F0E002C0E1E2F0E035
:100280009FB7F894662341F3EBCF0895982F9770AA
:1002900021E030E0092E01C0220F0A94EAF786958A
:1002A0008695869581F0813089F0823091F0833097
:1002B000D1F412C080812095822302C08081822BDC
:1002C00080839FBF0895EBE2F0E008C0E8E2F0E031
:1002D00005C0E5E2F0E002C0E2E2F0E09FB7F8948A
:1002E000662341F3EBCF08950E94D7040E947D005E
:1002F0000E949100FDCFFC0120893189C901089538
:10030000DC0150962D913C915197232B49F0549646
:10031000ED91FC915597E80FF91F268930E002C056
:100320002FEF3FEFC9010895FC01118A108A158A49
:10033000148A138A128A0895FC0124813581C90127
:100340000895FC0124813581C9010895FC0180894B
:100350009189892BD1F03FB7F894808991890197D1
:10036000918B808B84899589DF01A80FB91F5696E0
:100370002C910196803291051CF4958B848B02C0E0
:10038000158A148A3FBF30E002C02FEF3FEFC9014A
:100390000895EF92FF921F93CF93DF931F92CDB7F3
:1003A000DEB77C01D701DA968D919C91DB9740975F
:1003B000C8F71FB7F894D696ED91FC91D7970190A6
:1003C000F081E02DC701C696698309956981409740
:1003D000C8F4F70182AD93AD019693AF82AF84ADBF
:1003E00095ADE80FF91FE05CFF4F60830196D701E0
:1003F000DD969C938E93DC97409724F0DD961C92BB
:100400001E92DC97F701EA5AFF4F0190F081E02D30
:100410008081806280831FBF81E090E00F90DF9138
:10042000CF911F91FF90EF900895665F7F4F680F07
:10043000791FCB010895665F7F4F680F791FCB014D
:100440000895665F7F4F680F791FCB010895665F3F
:100450007F4F680F791FCB0108951F920F920FB63F
:100460000F9211242F938F939F93AF93BF93EF938A
:10047000FF938091670290916802892B21F1E091AE
:100480008702F0918802809167029091680201973B
:10049000909368028093670280916B0290916C0246
:1004A000DC01AD59BD4F1A962C9101968031910512
:1004B0002CF490936C0280936B0204C010926C0237
:1004C00010926B0220838091670290916802892BC1
:1004D00031F4E0918302F091840288E98083FF91F6
:1004E000EF91BF91AF919F918F912F910F900FBE80
:1004F0000F901F9018951F920F920FB60F92112414
:100500002F938F939F93AF93BF93EF93FF9380911C
:100510000B0290910C02892B21F1E0912B02F091BA
:100520002C0280910B0290910C02019790930C0287
:1005300080930B0280910F0290911002DC01A95F61
:10054000BD4F1A962C910196803191052CF4909311
:10055000100280930F0204C01092100210920F023A
:10056000208380910B0290910C02892B31F4E09151
:100570002702F091280288E98083FF91EF91BF91D3
:10058000AF919F918F912F910F900FBE0F901F9061
:100590001895FC01262F1382128248EE53E060E08A
:1005A00070E0448355836683778380E191E0918393
:1005B000808380E291E09587848780E290E097874E
:1005C0008687118A108A158A148A138A128A8AE207
:1005D00091E097AB86AB80E190E091AF80AF13AE36
:1005E00012AE17AE16AE15AE14AE222321F0213096
:1005F00009F052C028C0DF01A05BBF4F85EC90E03E
:100600008D939C93DF01AE5ABF4F84EC90E08D93A5
:100610009C93DF01AC5ABF4F80EC90E08D939C938C
:10062000DF01AA5ABF4F81EC90E08D939C93DF01CC
:10063000A85ABF4F82EC90E08D939C93E65AFF4FEF
:1006400086EC90E027C0DF01A05BBF4F8DEC90E00F
:100650008D939C93DF01AE5ABF4F8CEC90E08D934D
:100660009C93DF01AC5ABF4F88EC90E08D939C9334
:10067000DF01AA5ABF4F89EC90E08D939C93DF0174
:10068000A85ABF4F8AEC90E08D939C93E65AFF4F97
:100690008EEC90E09183808308953F924F925F9219
:1006A0006F927F928F929F92AF92BF92CF92DF9282
:1006B000EF92FF920F931F93CF93DF93EC014A01C8
:1006C0005B01122F3E2C60E072E18AE790E0A50109
:1006D00094010E94F00769017A0184E0C80ED11CE0
:1006E000E11CF11C83E0F694E794D794C7948A95B3
:1006F000D1F760E074E284EF90E0A50194010E94DC
:10070000F00729013A0194E0490E511C611C711C4B
:1007100093E076946794579447949A95D1F7A30100
:1007200092014427552760E874E88EE190E00E942A
:1007300012085901A818B908B7FE03C0B194A194D2
:10074000B108A70196014427552760E472E48FE0C1
:1007500090E00E9412082819390937FF03C031952B
:1007600021953109FE01EC5AFF4F0190F081E02DF7
:10077000A216B3063CF482E08083620181E0C81ACD
:10078000D10804C0108291E0C91AD1081630C1F016
:1007900018F4153099F405C0173029F0193071F4A8
:1007A00004C080E00EC084E00CC0FE01EA5AFF4F96
:1007B0000190F081E02D80818460808386E001C01B
:1007C00082E0023009F4886091E0391621F092E06D
:1007D000391204C002C0806301C08062FE01E85A81
:1007E000FF4F0190F081E02D8083FE01E05BFF4F21
:1007F0000190F081E02DD082FE01EE5AFF4F019072
:10080000F081E02DC082CA5ADF4FE881F98188E982
:100810008083DF91CF911F910F91FF90EF90DF9038
:10082000CF90BF90AF909F908F907F906F905F9090
:100830004F903F9008950F931F93CF93DF931F9294
:10084000CDB7DEB78C01DC01ED91FC910190F08118
:10085000E02D6983099569818097D0F4F80184813E
:10086000958101969583848386819781E80FF91F8E
:10087000628701968032910534F4D80117969C93D3
:100880008E93169703C0F8011782168281E001C08B
:1008900080E00F90DF91CF911F910F9108951F92EB
:1008A0000F920FB60F9211242F933F934F935F93A4
:1008B0006F937F938F939F93AF93BF93EF93FF9328
:1008C000E0912B02F0912C0260818DED91E00E946D
:1008D0001B04FF91EF91BF91AF919F918F917F91F9
:1008E0006F915F914F913F912F910F900FBE0F909D
:1008F0001F9018951F920F920FB60F9211242F93ED
:100900003F934F935F936F937F938F939F93AF9397
:10091000BF93EF93FF93E0918702F091880260818B
:1009200089E392E00E941B04FF91EF91BF91AF9188
:100930009F918F917F916F915F914F913F912F91F7
:100940000F900FBE0F901F90189560E08DE292E01F
:100950000E94C90261E081ED91E00C94C902CF923E
:10096000DF92EF92FF920F931F93CF93DF936C016F
:10097000EB017A01E60EF71E00E010E00BC0699172
:10098000D601ED91FC910190F081E02DC601099511
:10099000080F191FCE15DF0591F7C801DF91CF9120
:1009A0001F910F91FF90EF90DF90CF90089563E03B
:1009B00086ED92E00E94CB0721E04FEF54E060E02B
:1009C00086ED92E00E94A10764E086ED92E00E942D
:1009D000CE0661E084EB92E00E94CB0764E084EBFA
:1009E00092E00E94CE0661E082E992E00E94CB078D
:1009F00064E082E992E00E94CE06789408958091A6
:100A00008A0290918B02A0918C02B0918D0230915C
:100A10008902232F2D5F2D3720F40196A11DB11DD2
:100A200005C0232F2A570296A11DB11D20938902CC
:100A300080938A0290938B02A0938C02B0938D02D4
:100A400080918E0290918F02A0919002B0919102BC
:100A50000196A11DB11D80938E0290938F02A093E9
:100A60009002B093910208951F920F920FB60F92C9
:100A700011242F933F934F935F936F937F938F93A3
:100A80009F93AF93BF93EF93FF93E091F002F091A8
:100A9000F102309709F00995FF91EF91BF91AF9165
:100AA0009F918F917F916F915F914F913F912F9186
:100AB0000F900FBE0F901F9018951F920F920FB6B8
:100AC0000F9211242F933F934F935F936F937F93D4
:100AD0008F939F93AF93BF93EF93FF93E091F202B5
:100AE000F091F302309709F00995FF91EF91BF91D2
:100AF000AF919F918F917F916F915F914F913F91B6
:100B00002F910F900FBE0F901F9018951F920F926C
:100B10000FB60F9211242F933F934F935F936F93D0
:100B20007F938F939F93AF93BF93EF93FF93E09146
:100B3000EE02F091EF02309709F00995FF91EF91E5
:100B4000BF91AF919F918F917F916F915F914F91E5
:100B50003F912F910F900FBE0F901F9018951F92ED
:100B60000F920FB60F9211242F933F934F935F93E1
:100B70006F937F938F939F93AF93BF93EF93FF9365
:100B8000E091AC02F091AD02309709F00995FF9128
:100B9000EF91BF91AF919F918F917F916F915F91F5
:100BA0004F913F912F910F900FBE0F901F9018956E
:100BB0001F920F920FB60F9211242F933F934F93D2
:100BC0005F936F937F938F939F93AF93BF93EF93B5
:100BD000FF93E091AE02F091AF02309709F00995D2
:100BE000FF91EF91BF91AF919F918F917F916F9105
:100BF0005F914F913F912F910F900FBE0F901F90DB
:100C000018951F920F920FB60F9211242F933F93B6
:100C10004F935F936F937F938F939F93AF93BF9304
:100C2000EF93FF93E091AA02F091AB02309709F0A5
:100C30000995FF91EF91BF91AF919F918F917F9116
:100C40006F915F914F913F912F910F900FBE0F9039
:100C50001F9018951F920F920FB60F9211242F9389
:100C60003F934F935F936F937F938F939F93AF9334
:100C7000BF93EF93FF93E091CE02F091CF023097B4
:100C800009F00995FF91EF91BF91AF919F918F91DD
:100C90007F916F915F914F913F912F910F900FBE78
:100CA0000F901F9018951F920F920FB60F9211245C
:100CB0002F933F934F935F936F937F938F939F9364
:100CC000AF93BF93EF93FF93E091D002F091D102E5
:100CD000309709F00995FF91EF91BF91AF919F91E6
:100CE0008F917F916F915F914F913F912F910F90D5
:100CF0000FBE0F901F9018951F920F920FB60F9274
:100D000011242F933F934F935F936F937F938F9310
:100D10009F93AF93BF93EF93FF93E091CC02F09139
:100D2000CD02309709F00995FF91EF91BF91AF91F6
:100D30009F918F917F916F915F914F913F912F91F3
:100D40000F900FBE0F901F9018951F920F920FB625
:100D50000F9211242F933F934F935F936F937F9341
:100D60008F939F93AF93BF93EF93FF93E091D40240
:100D7000F091D502309709F00995FF91EF91BF915D
:100D8000AF919F918F917F916F915F914F913F9123
:100D90002F910F900FBE0F901F901895DC012C9192
:100DA0006150223039F4673068F4E62FF0E0E05DFE
:100DB000FE4F06C0693030F4E62FF0E0E95CFE4FEC
:100DC000208101C020E0DC011A96ED91FC911B9777
:100DD0008081887F822B80830895CF93DF93EC01FD
:100DE0006883613011F120F0623009F06CC048C0B6
:100DF0001B821A8286E490E09D838C838EE690E0CD
:100E00009F838E8384E490E09987888785E490E0CF
:100E10009B878A871D861C8687E490E09F878E8744
:100E2000198A188A88E490E022C08FE690E09F83B8
:100E30008E8385E890E09B838A8384E890E09D839D
:100E40008C8380E890E09987888781E890E09B8791
:100E50008A8789E890E09D878C8788E890E09F8763
:100E60008E878BE890E0998B888B8AE890E09B8B4B
:100E70008A8B1D8A1C8A1F8A1E8A82E0898323C06E
:100E80001B821A8282EB90E09D838C8380E790E046
:100E90009F838E8380EB90E09987888781EB90E039
:100EA0009B878A871D861C8683EB90E09F878E87B1
:100EB000198A188A84EB90E09B8B8A8B1D8A1C8A86
:100EC0001F8A1E8A698360E0CE010E94CE06EA81F5
:100ED000FB81309709F01082EC81FD811082198E20
:100EE000188E1B8E1A8E1D8E1C8E1F8E1E8E19A2A2
:100EF00018A2DF91CF91089551E0411101C050E057
:100F00006530F0F4E62FF0E0E05CFE4F408147FDF5
:100F100017C0DC011696ED91FC911797808121E0B6
:100F200030E0042E01C0220F0A94EAF7209528230E
:100F3000852F042E01C0880F0A94EAF7282B2083FE
:100F40000895623099F028F4662341F06130C9F4C5
:100F500009C0633079F06430A1F410C0FC01518FF6
:100F6000408F0FC0FC01538F428F0BC0FC01558F87
:100F7000448F07C0FC01578F468F03C0FC0151A36B
:100F800040A3452B11F440E003C0222319F041E0B7
:100F90000C947C070895DC011896ED91FC9119974B
:100FA0003081262F23703C7F232B20831A96ED91CE
:100FB000FC911B9780816C70660F877E682B608325
:100FC000089560E086ED92E00E94ED0661E084EB1A
:100FD00092E00E94ED0662E082E992E00C94ED0658
:100FE000A1E21A2EAA1BBB1BFD010DC0AA1FBB1F2D
:100FF000EE1FFF1FA217B307E407F50720F0A21B9F
:10100000B30BE40BF50B661F771F881F991F1A940B
:1010100069F760957095809590959B01AC01BD0135
:10102000CF010895052E97FB16F4009407D057FDC5
:101030000DD00E94F00707FC09D07EF490958095B2
:10104000709561957F4F8F4F9F4F089550954095B4
:10105000309521953F4F4F4F5F4F0895EE0FFF1F83
:101060000590F491E02D0994FC0188279927E894D4
:1010700021912032E9F3293010F02E30C8F32B32C1
:1010800041F02D3239F4689404C00E945B08820F4D
:10109000911D219120532A30C0F31EF49095819523
:1010A0009F4F0895FB01DC018D9101908019011083
:1010B000D9F3990B08957AE0979F902D879F802D03
:0A10C000910D11240895F894FFCF5C
:1010CA000000F80220000F006C65640000000000B8
:1010DA00C901AF047B018001A60194010000000050
:1010EA00A10121022702000000009C0115021B0237
:1010FA0001020304050607010200030004050607AE
:06110A00000102030500D4
:00000001FF
