:100000000C9441000C9469000C9469000C946900F4
:100010000C9469000C9469000C9469000C946900BC
:100020000C9469000C94E0060C9409070C943207B8
:100030000C94D6070C945B070C9484070C94AD07C2
:100040000C9465060C948E060C94B7060C9469000B
:100050000C94B5040C9468020C9469000C9469002B
:100060000C9469000C9469000C9469000C9469006C
:100070000C948A040C94B6020C946900A700E00466
:10008000120911241FBECFEFD0E1DEBFCDBF11E0BA
:10009000A0E0B1E0ECE2F3E102C005900D92A834DB
:1000A000B107D9F712E0A8E4B1E001C01D92AC3F5E
:1000B000B107E1F710E0C2E8D0E004C02297FE01EA
:1000C0000E946109CC37D107C9F70E94AF010C9497
:1000D00094090C94000068E071E08AE491E00E94C9
:1000E000DD00882341F08AE491E00E94EA00682F55
:1000F0008FE00C9481010895EF920F93E12C01E0C1
:1001000028E040E051EE60E070E081E392E00E9480
:1001100088033F9A0F91EF9008958AE491E00E943E
:100120002B0180E00E94510120914801309149014A
:100130008217930759F09093490180934801AC01CD
:100140006CE071E08AE491E00C94BD0008954BE608
:1001500050E061E372E08AE491E00C94AF00FC01AE
:100160007783668351834083DC01A657BF4F1C927F
:1001700012860B969383828308950F931F93CF93D8
:10018000DF93EC018A018E819F810E942F05AE8151
:10019000BF81ED91FC9111970190F081E02D60E21B
:1001A000CD0109954AE050E0B8018E819F81DF9131
:1001B000CF911F910F910C94EE059B01BC01655FDF
:1001C0007F4FC9010E9483099C0181E0232B09F024
:1001D00080E00895FC01828193810C946509CF939E
:1001E000DF93EC01161617069CF56D30710539F09A
:1001F0006032710569F06A307105E1F429C08A85C1
:10020000FE01E80FF11D1386E881F98109951BC0F5
:100210008A85FE01E80FF11D13868F5F8E3710F47B
:100220008A8701C01A868A8590E00B968C0F9D1FE5
:100230009B838A838A85FE01E80FF11D63878F5FA8
:100240008A878E3728F01A86CE010B969B838A8385
:10025000DF91CF910895CF93DF93EC010DC08E8194
:100260009F81DC01ED91FC910084F185E02D0995E1
:10027000BC01CE010E94EF008E819F81DC01ED91D7
:10028000FC910480F581E02D0995892B41F7DF91E0
:10029000CF91089580E480937C0087E880937A0072
:1002A0000895CF93DF931F92CDB7DEB790910601EB
:1002B000913031F489830E944A01109206018981AC
:1002C00087702091070140E4249F90011124822B24
:1002D00080937C0080917A00806480937A00809182
:1002E0007A0086FDFCCF2091780030917900932F21
:1002F00080E0FC01E22B9F01C9010F90DF91CF91BB
:100300000895982F977021E030E0092E01C0220F48
:100310000A94EAF786958695869581F0813089F072
:10032000823091F08330D1F412C0808120958223F5
:1003300002C08081822B80839FBF0895EBE2F0E0B2
:1003400008C0E8E2F0E005C0E5E2F0E002C0E2E269
:10035000F0E09FB7F894662341F3EBCF08950E9435
:1003600008060E947C000E948D00FDCFFC012089C0
:100370003189C9010895DC0150962D913C91519726
:10038000232B49F05496ED91FC915597E80FF91FF6
:10039000268930E002C02FEF3FEFC9010895FC012C
:1003A000118A108A158A148A138A128A0895FC0108
:1003B00024813581C9010895FC0124813581C90159
:1003C0000895FC0180899189892BD1F03FB7F89479
:1003D000808991890197918B808B84899589DF0130
:1003E000A80FB91F56962C910196803291051CF4E6
:1003F000958B848B02C0158A148A3FBF30E002C0FF
:100400002FEF3FEFC9010895EF92FF921F93CF9313
:10041000DF931F92CDB7DEB77C01D701DA968D91BD
:100420009C91DB974097C8F71FB7F894D696ED914B
:10043000FC91D7970190F081E02DC701C6966983A2
:10044000099569814097C8F4F70182AD93AD019693
:1004500093AF82AF84AD95ADE80FF91FE05CFF4F1D
:1004600060830196D701DD969C938E93DC9740972D
:1004700024F0DD961C921E92DC97F701EA5AFF4F9A
:100480000190F081E02D8081806280831FBF81E038
:1004900090E00F90DF91CF911F91FF90EF90089522
:1004A000665F7F4F680F791FCB010895665F7F4FAE
:1004B000680F791FCB010895665F7F4F680F791F22
:1004C000CB010895665F7F4F680F791FCB010895B8
:1004D0001F920F920FB60F9211242F938F939F9319
:1004E000AF93BF93EF93FF9380916B0290916C0257
:1004F000892B21F1E0918B02F0918C0280916B02AB
:1005000090916C02019790936C0280936B028091A2
:100510006F0290917002DC01A959BD4F1A962C917F
:100520000196803191052CF49093700280936F02B4
:1005300004C01092700210926F02208380916B02AF
:1005400090916C02892B31F4E0918702F09188023E
:1005500088E98083FF91EF91BF91AF919F918F9137
:100560002F910F900FBE0F901F9018951F920F9212
:100570000FB60F9211242F938F939F93AF93BF9336
:10058000EF93FF9380910F0290911002892B21F13C
:10059000E0912F02F091300280910F0290911002B1
:1005A00001979093100280930F0280911302909113
:1005B0001402DC01A55FBD4F1A962C910196803183
:1005C00091052CF4909314028093130204C01092AE
:1005D000140210921302208380910F029091100256
:1005E000892B31F4E0912B02F0912C0288E9808371
:1005F000FF91EF91BF91AF919F918F912F910F90AC
:100600000FBE0F901F901895FC01262F13821282A7
:1006100048EE53E060E070E044835583668377835F
:1006200083E191E09183808383E291E095878487E1
:1006300080E290E097878687118A108A158A148A4B
:10064000138A128A8DE291E097AB86AB80E190E04D
:1006500091AF80AF13AE12AE17AE16AE15AE14AE9C
:10066000222321F0213009F052C028C0DF01A05B15
:10067000BF4F85EC90E08D939C93DF01AE5ABF4F46
:1006800084EC90E08D939C93DF01AC5ABF4F80ECDB
:1006900090E08D939C93DF01AA5ABF4F81EC90E0CC
:1006A0008D939C93DF01A85ABF4F82EC90E08D930D
:1006B0009C93E65AFF4F86EC90E027C0DF01A05BD9
:1006C000BF4F8DEC90E08D939C93DF01AE5ABF4FEE
:1006D0008CEC90E08D939C93DF01AC5ABF4F88EC7B
:1006E00090E08D939C93DF01AA5ABF4F89EC90E074
:1006F0008D939C93DF01A85ABF4F8AEC90E08D93B5
:100700009C93E65AFF4F8EEC90E09183808308958E
:100710003F924F925F926F927F928F929F92AF9291
:10072000BF92CF92DF92EF92FF920F931F93CF93DE
:10073000DF93EC014A015B01122F3E2C60E072E175
:100740008AE790E0A50194010E94210969017A01DC
:1007500084E0C80ED11CE11CF11C83E0F694E79400
:10076000D794C7948A95D1F760E074E284EF90E063
:10077000A50194010E94210929013A0194E0490E42
:10078000511C611C711C93E07694679457944794B4
:100790009A95D1F7A30192014427552760E874E8A0
:1007A0008EE190E00E9443095901A818B908B7FEEC
:1007B00003C0B194A194B108A7019601442755271D
:1007C00060E472E48FE090E00E944309281939093F
:1007D00037FF03C0319521953109FE01EC5AFF4FD7
:1007E0000190F081E02DA216B3063CF482E08083F4
:1007F000620181E0C81AD10804C0108291E0C91AD0
:10080000D1081630C1F018F4153099F405C017302E
:1008100029F0193071F404C080E00EC084E00CC0EF
:10082000FE01EA5AFF4F0190F081E02D8081846043
:10083000808386E001C082E0023009F4886091E0A4
:10084000391621F092E0391204C002C0806301C061
:100850008062FE01E85AFF4F0190F081E02D808315
:10086000FE01E05BFF4F0190F081E02DD082FE01A0
:10087000EE5AFF4F0190F081E02DC082CA5ADF4F3F
:10088000E881F98188E98083DF91CF911F910F91F1
:10089000FF90EF90DF90CF90BF90AF909F908F90A0
:1008A0007F906F905F904F903F9008950F931F93AC
:1008B000CF93DF931F92CDB7DEB78C01DC01ED91B2
:1008C000FC910190F081E02D698309956981809701
:1008D000D0F4F80184819581019695838483868183
:1008E0009781E80FF91F628701968032910534F4F1
:1008F000D80117969C938E93169703C0F801178220
:10090000168281E001C080E00F90DF91CF911F91AE
:100910000F9108951F920F920FB60F9211242F93EB
:100920003F934F935F936F937F938F939F93AF9377
:10093000BF93EF93FF93E0912F02F091300260811B
:1009400081EE91E00E945604FF91EF91BF91AF912B
:100950009F918F917F916F915F914F913F912F91D7
:100960000F900FBE0F901F9018951F920F920FB609
:100970000F9211242F933F934F935F936F937F9325
:100980008F939F93AF93BF93EF93FF93E0918B026D
:10099000F0918C0260818DE392E00E945604FF91F9
:1009A000EF91BF91AF919F918F917F916F915F91E7
:1009B0004F913F912F910F900FBE0F901F90189560
:1009C00060E081E392E00E94040361E085ED91E044
:1009D0000C940403CF92DF92EF92FF920F931F9338
:1009E000CF93DF936C01EB017A01E60EF71E00E076
:1009F00010E00BC06991D601ED91FC910190F0815E
:100A0000E02DC6010995080F191FCE15DF0591F7D6
:100A1000C801DF91CF911F910F91FF90EF90DF9070
:100A2000CF9008956115710581F0DB010D900020D4
:100A3000E9F7AD0141505109461B570BDC01ED911F
:100A4000FC910280F381E02D099480E090E008950C
:100A5000DC01ED91FC910190F081E02D09940C9462
:100A600012050F931F93CF93DF93EC016DE00E946B
:100A700028058C016AE0CE010E9428059C01200F08
:100A8000311FC901DF91CF911F910F9108954F92AE
:100A90005F926F927F929F92AF92BF92CF92DF92BE
:100AA000EF92FF920F931F93CF93DF93CDB7DEB7F3
:100AB000A1970FB6F894DEBF0FBECDBF5C016A01EF
:100AC0007B01922E19A281E0821710F08AE0982E05
:100AD0008E010F5D1F4F492C512C612C712CC701C9
:100AE000B601A30192010E9421098C2D929E8019CA
:100AF0001124015011098A3014F4805D01C0895C11
:100B0000F801808369017A01C114D104E104F10480
:100B100031F7B801C5010E941205A1960FB6F894ED
:100B2000DEBF0FBECDBFDF91CF911F910F91FF9020
:100B3000EF90DF90CF90BF90AF909F907F906F909D
:100B40005F904F900895CF92DF92EF92FF920F93B4
:100B50001F93CF93DF93EC016A017B0121153105CF
:100B600079F4E881F9810190F081E02D642FDF9123
:100B7000CF911F910F91FF90EF90DF90CF9009944C
:100B80002A30310519F477FD0EC02AE0B701A6011D
:100B9000CE01DF91CF911F910F91FF90EF90DF90E9
:100BA000CF900C9447056DE20E9428058C014427E4
:100BB0005527BA014C195D096E097F092AE0CE015B
:100BC0000E944705080F191FC801DF91CF911F919F
:100BD0000F91FF90EF90DF90CF9008950F931F93A8
:100BE000CF93DF93EC019A01AB01662757FD609527
:100BF000762F0E94A3058C01CE010E943105980139
:100C0000280F391FC901DF91CF911F910F910895CE
:100C100063E08AED92E00E94FC0821E040E356E0A8
:100C200060E08AED92E00E94D20864E08AED92E0F2
:100C30000E94FF0761E088EB92E00E94FC0864E0FC
:100C400088EB92E00E94FF0761E086E992E00E9453
:100C5000FC0864E086E992E00E94FF07789408951A
:100C600080918E0290918F02A0919002B09191029A
:100C700030918D02232F2D5F2D3720F40196A11D79
:100C8000B11D05C0232F2A570296A11DB11D209327
:100C90008D0280938E0290938F02A0939002B09366
:100CA00091028091920290919302A0919402B0914E
:100CB00095020196A11DB11D80939202909393021B
:100CC000A0939402B093950208951F920F920FB6CD
:100CD0000F9211242F933F934F935F936F937F93C2
:100CE0008F939F93AF93BF93EF93FF93E091F402A1
:100CF000F091F502309709F00995FF91EF91BF91BE
:100D0000AF919F918F917F916F915F914F913F91A3
:100D10002F910F900FBE0F901F9018951F920F925A
:100D20000FB60F9211242F933F934F935F936F93BE
:100D30007F938F939F93AF93BF93EF93FF93E09134
:100D4000F602F091F702309709F00995FF91EF91C3
:100D5000BF91AF919F918F917F916F915F914F91D3
:100D60003F912F910F900FBE0F901F9018951F92DB
:100D70000F920FB60F9211242F933F934F935F93CF
:100D80006F937F938F939F93AF93BF93EF93FF9353
:100D9000E091F202F091F302309709F00995FF918A
:100DA000EF91BF91AF919F918F917F916F915F91E3
:100DB0004F913F912F910F900FBE0F901F9018955C
:100DC0001F920F920FB60F9211242F933F934F93C0
:100DD0005F936F937F938F939F93AF93BF93EF93A3
:100DE000FF93E091B002F091B102309709F00995BC
:100DF000FF91EF91BF91AF919F918F917F916F91F3
:100E00005F914F913F912F910F900FBE0F901F90C8
:100E100018951F920F920FB60F9211242F933F93A4
:100E20004F935F936F937F938F939F93AF93BF93F2
:100E3000EF93FF93E091B202F091B302309709F083
:100E40000995FF91EF91BF91AF919F918F917F9104
:100E50006F915F914F913F912F910F900FBE0F9027
:100E60001F9018951F920F920FB60F9211242F9377
:100E70003F934F935F936F937F938F939F93AF9322
:100E8000BF93EF93FF93E091AE02F091AF023097E2
:100E900009F00995FF91EF91BF91AF919F918F91CB
:100EA0007F916F915F914F913F912F910F900FBE66
:100EB0000F901F9018951F920F920FB60F9211244A
:100EC0002F933F934F935F936F937F938F939F9352
:100ED000AF93BF93EF93FF93E091D202F091D302CF
:100EE000309709F00995FF91EF91BF91AF919F91D4
:100EF0008F917F916F915F914F913F912F910F90C3
:100F00000FBE0F901F9018951F920F920FB60F9261
:100F100011242F933F934F935F936F937F938F93FE
:100F20009F93AF93BF93EF93FF93E091D402F0911F
:100F3000D502309709F00995FF91EF91BF91AF91DC
:100F40009F918F917F916F915F914F913F912F91E1
:100F50000F900FBE0F901F9018951F920F920FB613
:100F60000F9211242F933F934F935F936F937F932F
:100F70008F939F93AF93BF93EF93FF93E091D00232
:100F8000F091D102309709F00995FF91EF91BF914F
:100F9000AF919F918F917F916F915F914F913F9111
:100FA0002F910F900FBE0F901F9018951F920F92C8
:100FB0000FB60F9211242F933F934F935F936F932C
:100FC0007F938F939F93AF93BF93EF93FF93E091A2
:100FD000D802F091D902309709F00995FF91EF916D
:100FE000BF91AF919F918F917F916F915F914F9141
:100FF0003F912F910F900FBE0F901F901895DC011D
:101000002C916150223039F4673068F4E62FF0E01B
:10101000ED5CFE4F06C0693030F4E62FF0E0E65C90
:10102000FE4F208101C020E0DC011A96ED91FC9179
:101030001B978081887F822B80830895CF93DF93D5
:10104000EC016883613011F120F0623009F06CC06E
:1010500048C01B821A8286E490E09D838C838EE6D2
:1010600090E09F838E8384E490E09987888785E46D
:1010700090E09B878A871D861C8687E490E09F8787
:101080008E87198A188A88E490E022C08FE690E063
:101090009F838E8385E890E09B838A8384E890E039
:1010A0009D838C8380E890E09987888781E890E031
:1010B0009B878A8789E890E09D878C8788E890E005
:1010C0009F878E878BE890E0998B888B8AE890E0E9
:1010D0009B8B8A8B1D8A1C8A1F8A1E8A82E08983C9
:1010E00023C01B821A8282EB90E09D838C8380E771
:1010F00090E09F838E8380EB90E09987888781EBD7
:1011000090E09B878A871D861C8683EB90E09F87F3
:101110008E87198A188A84EB90E09B8B8A8B1D8AB4
:101120001C8A1F8A1E8A698360E0CE010E94FF0725
:10113000EA81FB81309709F01082EC81FD811082F9
:10114000198E188E1B8E1A8E1D8E1C8E1F8E1E8E53
:1011500019A218A2DF91CF91089551E0411101C069
:1011600050E06530F0F4E62FF0E0ED5BFE4F40819B
:1011700047FD17C0DC011696ED91FC911797808111
:1011800021E030E0042E01C0220F0A94EAF72095F6
:101190002823852F042E01C0880F0A94EAF7282BF4
:1011A00020830895623099F028F4662341F061307D
:1011B000C9F409C0633079F06430A1F410C0FC01B7
:1011C000518F408F0FC0FC01538F428F0BC0FC0129
:1011D000558F448F07C0FC01578F468F03C0FC0119
:1011E00051A340A3452B11F440E003C0222319F082
:1011F00041E00C94AD080895DC011896ED91FC9146
:1012000019973081262F23703C7F232B20831A9639
:10121000ED91FC911B9780816C70660F877E682B27
:101220006083089560E08AED92E00E941E0861E00C
:1012300088EB92E00E941E0862E086E992E00C943E
:101240001E08A1E21A2EAA1BBB1BFD010DC0AA1F7E
:10125000BB1FEE1FFF1FA217B307E407F50720F01F
:10126000A21BB30BE40BF50B661F771F881F991F9A
:101270001A9469F760957095809590959B01AC01E3
:10128000BD01CF010895052E97FB16F4009407D0F9
:1012900057FD0DD00E94210907FC09D07EF49095DE
:1012A0008095709561957F4F8F4F9F4F0895509512
:1012B0004095309521953F4F4F4F5F4F0895EE0F6A
:1012C000FF1F0590F491E02D0994FC0188279927D0
:1012D000E89421912032E9F3293010F02E30C8F340
:1012E0002B3241F02D3239F4689404C00E948C09ED
:1012F000820F911D219120532A30C0F31EF4909546
:1013000081959F4F0895FB01DC018D91019080191B
:101310000110D9F3990B08957AE0979F902D879F3C
:0C132000802D910D11240895F894FFCF4A
:10132C000000FC02200001016C65640061300000CB
:10133C000000000402EA04B601BB01E101CF010088
:10134C00000000DC015C02620200000000D70150CA
:10135C000256020102030405060701020003000401
:08136C0005060700010203055C
:00000001FF
